:100000000C9434000C9449000C9449000C94490061
:100010000C9449000C9449000C9449000C9449003C
:100020000C9449000C9449000C9449000C9449002C
:100030000C9449000C9449000C944B000C9449001A
:100040000C9449000C9449000C9449000C9449000C
:100050000C9449000C9449000C9449000C944900FC
:100060000C9449000C94490011241FBECFEFD8E036
:10007000DEBFCDBF11E0A0E0B1E0E0EDF1E002C0F5
:1000800005900D92A230B107D9F70E94C7000C94D9
:10009000E6000C9400000F920FB60F921F921124ED
:1000A0002F933F934F935F936F937F938F939F9380
:1000B000AF93BF939091010180910001980F9093AD
:1000C00001018FEF943618F4911103C081E0809301
:1000D00000014091860050918700949F9001959F68
:1000E000300D1124C90164E670E00E94D2007093C3
:1000F000890060938800BF91AF919F918F917F910C
:100100006F915F914F913F912F911F900F900FBE74
:100110000F901895219A8FB780688FBF0895E6E8F1
:10012000F0E08FEF90E0918380838081918164E69D
:1001300070E00E94D2007093890060938800109252
:10014000850010928400E0E8808182608083A1E8CD
:10015000B0E08C9188618C938C9185608C938081C8
:1001600080688083089516BC8DE487BD84B5826065
:1001700084BD85B5856085BDEEE6F0E08081826056
:100180008083A99A08950E948F000C94B3000E9466
:100190008A000E94C3008FE39CE90197F1F700C039
:1001A0000000F9CFAA1BBB1B51E107C0AA1FBB1F50
:1001B000A617B70710F0A61BB70B881F991F5A95F3
:1001C000A9F780959095BC01CD010895F894FFCFD3
:0201D00001012B
:00000001FF
