:100000000C9434000C9451000C9451000C94510049
:100010000C9451000C9451000C9451000C9451001C
:100020000C9451000C9451000C9451000C947100EC
:100030000C9451000C9451000C9451000C945100FC
:100040000C9451000C9451000C9451000C945100EC
:100050000C9451000C9451000C9451000C945100DC
:100060000C9451000C94510011241FBECFEFD8E026
:10007000DEBFCDBF11E0A0E0B1E0E0EBF3E002C0F5
:1000800005900D92A831B107D9F721E0A8E1B1E0C0
:1000900001C01D92AE31B207E1F70E94B1010C948C
:1000A000D6010C940000CF93DF93C8E1D1E08881A2
:1000B00099810E941F0180E091E00E94DB008A810B
:1000C0009B810E941F0180E091E00E94DB008C81F7
:1000D0009D810E941F0183E091E0DF91CF910C94FC
:1000E000DB001F920F920FB60F9211242F933F93B4
:1000F0004F935F936F937F938F939F93AF93BF9330
:10010000EF93FF930E945300FF91EF91BF91AF9146
:100110009F918F917F916F915F914F913F912F911F
:100120000F900FBE0F901F901895813069F08230AC
:10013000A1F081111AC00E945A010E94A30190935C
:1001400019018093180108950E946B010E94A30178
:1001500090931B0180931A0108950E9481010E94CF
:10016000A30190931D0180931C01089580E190E00C
:100170000E94C2000E943A010E9451018FB780681C
:100180008FBF08959093C5008093C400E0ECF0E029
:10019000808182608083E1EC808188618083E2ECF1
:1001A00080818660808308959091C00095FFFCCF88
:1001B0008093C6000895CF93DF93EC01888181116D
:1001C00003C0DF91CF91089521960E94D400F6CF0D
:1001D0008091C00087FFFCCF8091C6000895CF9327
:1001E000DF93CDB7DEB761970FB6F894DEBF0FBED1
:1001F000CDBF91E1E6E0F1E0DE01119601900D92B4
:100200009A95E1F7FE013196E80FF11D8081619624
:100210000FB6F894DEBF0FBECDBFDF91CF9108952A
:10022000CF93C82F82958F700E94EF000E94D40058
:100230008C2F8F700E94EF00CF910C94D400CF933D
:10024000DF93EC0180E3209789F0CA30D10540F0BC
:10025000CE016AE070E00E94C201CB010E941F0142
:10026000CE016AE070E00E94C201805DDF91CF9113
:100270000C94D40087E391E09093890080938800E8
:100280001092850010928400E1E8F0E0808188609F
:100290008083808185608083EFE6808182608083B7
:1002A0000895EAE7F0E0808180688083808187603C
:1002B0008083089510927C0080917C0080648093FC
:1002C0007C0080917A00806480937A0080917A002B
:1002D00086FDFCCF089510927C0080917C008064A4
:1002E00080937C0080917C00816080937C00809171
:1002F0007A00806480937A0080917A0086FFFCCF38
:10030000089510927C0080917C00806480937C0032
:1003100080917C00826080937C0080917A00806470
:1003200080937A0080917A0086FDFCCF08958091B9
:100330007A00806480937A0080917A0086FDFCCFF9
:1003400080917900089580917A00806480937A008A
:1003500080917A0086FDFCCF8091780090917900A1
:1003600008950E94B6000E945A010E94A301909332
:1003700019018093180181E00E94950082E00E949B
:100380009500F1CFAA1BBB1B51E107C0AA1FBB1FE1
:10039000A617B70710F0A61BB70B881F991F5A9511
:1003A000A9F780959095BC01CD010895F894FFCFF1
:1003B0002C20000D0A0030313233343536373839CD
:0803C0004142434445460000A0
:00000001FF
